:020000040800F2
:1000000000000220B50200080503000805030008EF
:1000100005030008050300080503000800000000B0
:1000200000000000000000000000000005030008C0
:100030000503000800000000050300080503000890
:100040000503000805030008050300080503000870
:100050000000000005030008050300080503000870
:100060000503000805030008050300080503000850
:100070000503000805030008050300080503000840
:100080000503000805030008050300080503000830
:100090000503000805030008050300080503000820
:1000A0000503000805030008050300080503000810
:1000B0000503000805030008050300080503000800
:1000C00005030008050300080503000805030008F0
:1000D00005030008050300080503000805030008E0
:1000E00005030008050300080503000805030008D0
:1000F00005030008050300080503000805030008C0
:1001000005030008050300080503000805030008AF
:10011000050300080503000805030008050300089F
:10012000050300080503000805030008050300088F
:10013000050300080503000805030008050300087F
:10014000050300080503000805030008050300086F
:10015000050300080503000805030008050300085F
:10016000050300080503000805030008050300084F
:10017000050300080503000805030008050300083F
:08018000050300080503000857
:1001880010B5054C237833B9044B13B10448AFF3C9
:1001980000800123237010BD000000200000000033
:1001A8005003000808B5034B1BB103490348AFF3DC
:1001B800008008BD00000000040000205003000873
:1001C80080B400AF074B1B68064A43F00103136075
:1001D800044B1B6B034A43F00503136300BFBD4682
:1001E80080BC70470038024080B485B000AF7860AA
:1001F80009E00023FB6002E0FB680133FB60FB6859
:10020800B3F57A7FF8D37B685A1E7A60002BF0D159
:1002180000BF00BF1437BD4680BC704780B500AF33
:10022800FFF7CEFF0C4B9B690B4A43F08063936149
:100238000A4B1B68094A43F480631360074B5B68E9
:10024800064A23F020035360044B9B68034A43F497
:100258008063936000BF80BD000802400000024038
:1002680080B500AFFFF7ACFFFFF7D8FF0D4B1B6958
:100278000C4A43F0200313610B4BDB6803F4005373
:10028800002BF9D11420FFF7AFFF074BDB6803F40D
:100298000053002BF0D1034B1B69024A83F0200363
:1002A8001361E9E700000240000802400D48854656
:1002B800AFF300800C480D490D4A002302E0D458E2
:1002C800C4500433C4188C42F9D30A4A0A4C002398
:1002D80001E013600432A242FBD300F011F8FFF7EB
:1002E800BFFFFEE700000220000000200000002001
:1002F80070030008000000201C000020FEE700003A
:1003080070B50D4D0D4C641BA4100026A64209D1F2
:100318000B4D0C4C00F018F8641BA4100026A642E4
:1003280005D170BD55F8043B98470136EEE755F8FE
:10033800043B98470136F2E76803000868030008A1
:10034800680300086C030008F8B500BFF8BC08BCD7
:100358009E467047F8B500BFF8BC08BC9E4670477B
:04036800AD010008DB
:04036C0089010008FB
:04000005080002B538
:00000001FF
